{
  "contractName": "TodoList",
  "abi": [
    {
      "constant": true,
      "inputs": [
        {
          "name": "",
          "type": "address"
        }
      ],
      "name": "packetinfo",
      "outputs": [
        {
          "name": "buf",
          "type": "string"
        },
        {
          "name": "bulen",
          "type": "uint256"
        },
        {
          "name": "dup",
          "type": "string"
        },
        {
          "name": "qos",
          "type": "uint256"
        },
        {
          "name": "retained",
          "type": "string"
        },
        {
          "name": "packetid",
          "type": "uint256"
        },
        {
          "name": "topicName",
          "type": "string"
        },
        {
          "name": "payload",
          "type": "string"
        },
        {
          "name": "payloadlen",
          "type": "uint256"
        }
      ],
      "payable": false,
      "stateMutability": "view",
      "type": "function",
      "signature": "0x5e5d77e6"
    },
    {
      "constant": true,
      "inputs": [],
      "name": "currentBlockTimestamp",
      "outputs": [
        {
          "name": "",
          "type": "uint256"
        }
      ],
      "payable": false,
      "stateMutability": "view",
      "type": "function",
      "signature": "0xabf81272"
    },
    {
      "constant": false,
      "inputs": [],
      "name": "getCurrentBlockTimestamp",
      "outputs": [],
      "payable": false,
      "stateMutability": "nonpayable",
      "type": "function",
      "signature": "0x0f28c97d"
    },
    {
      "constant": false,
      "inputs": [
        {
          "name": "wallet",
          "type": "address"
        },
        {
          "name": "_buf",
          "type": "string"
        },
        {
          "name": "_bulen",
          "type": "uint256"
        },
        {
          "name": "_dup",
          "type": "string"
        },
        {
          "name": "_qos",
          "type": "uint256"
        },
        {
          "name": "_retained",
          "type": "string"
        },
        {
          "name": "_packetid",
          "type": "uint256"
        },
        {
          "name": "_topicName",
          "type": "string"
        },
        {
          "name": "_payload",
          "type": "string"
        },
        {
          "name": "_payloadlen",
          "type": "uint256"
        }
      ],
      "name": "savePacket",
      "outputs": [],
      "payable": false,
      "stateMutability": "nonpayable",
      "type": "function",
      "signature": "0xbb379dc0"
    }
  ],
  "bytecode": "0x60806040524260005534801561001457600080fd5b50610afc806100246000396000f3fe6080604052600436106100615763ffffffff7c01000000000000000000000000000000000000000000000000000000006000350416630f28c97d81146100665780635e5d77e61461007d578063abf81272146102dc578063bb379dc014610303575b600080fd5b34801561007257600080fd5b5061007b6105fd565b005b34801561008957600080fd5b506100b0600480360360208110156100a057600080fd5b5035600160a060020a0316610603565b60405180806020018a81526020018060200189815260200180602001888152602001806020018060200187815260200186810386528f818151815260200191508051906020019080838360005b838110156101155781810151838201526020016100fd565b50505050905090810190601f1680156101425780820380516001836020036101000a031916815260200191505b5086810385528d5181528d516020918201918f019080838360005b8381101561017557818101518382015260200161015d565b50505050905090810190601f1680156101a25780820380516001836020036101000a031916815260200191505b5086810384528b5181528b516020918201918d019080838360005b838110156101d55781810151838201526020016101bd565b50505050905090810190601f1680156102025780820380516001836020036101000a031916815260200191505b5086810383528951815289516020918201918b019080838360005b8381101561023557818101518382015260200161021d565b50505050905090810190601f1680156102625780820380516001836020036101000a031916815260200191505b5086810382528851815288516020918201918a019080838360005b8381101561029557818101518382015260200161027d565b50505050905090810190601f1680156102c25780820380516001836020036101000a031916815260200191505b509e50505050505050505050505050505060405180910390f35b3480156102e857600080fd5b506102f1610907565b60408051918252519081900360200190f35b34801561030f57600080fd5b5061007b600480360361014081101561032757600080fd5b600160a060020a03823516919081019060408101602082013564010000000081111561035257600080fd5b82018360208201111561036457600080fd5b8035906020019184600183028401116401000000008311171561038657600080fd5b91908080601f016020809104026020016040519081016040528093929190818152602001838380828437600092019190915250929584359590949093506040810192506020013590506401000000008111156103e157600080fd5b8201836020820111156103f357600080fd5b8035906020019184600183028401116401000000008311171561041557600080fd5b91908080601f0160208091040260200160405190810160405280939291908181526020018383808284376000920191909152509295843595909490935060408101925060200135905064010000000081111561047057600080fd5b82018360208201111561048257600080fd5b803590602001918460018302840111640100000000831117156104a457600080fd5b91908080601f016020809104026020016040519081016040528093929190818152602001838380828437600092019190915250929584359590949093506040810192506020013590506401000000008111156104ff57600080fd5b82018360208201111561051157600080fd5b8035906020019184600183028401116401000000008311171561053357600080fd5b91908080601f016020809104026020016040519081016040528093929190818152602001838380828437600092019190915250929594936020810193503591505064010000000081111561058657600080fd5b82018360208201111561059857600080fd5b803590602001918460018302840111640100000000831117156105ba57600080fd5b91908080601f016020809104026020016040519081016040528093929190818152602001838380828437600092019190915250929550509135925061090d915050565b42600055565b60016020818152600092835260409283902080548451600294821615610100026000190190911693909304601f81018390048302840183019094528383529283918301828280156106955780601f1061066a57610100808354040283529160200191610695565b820191906000526020600020905b81548152906001019060200180831161067857829003601f168201915b505050505090806001015490806002018054600181600116156101000203166002900480601f0160208091040260200160405190810160405280929190818152602001828054600181600116156101000203166002900480156107395780601f1061070e57610100808354040283529160200191610739565b820191906000526020600020905b81548152906001019060200180831161071c57829003601f168201915b50505050600383015460048401805460408051602060026001851615610100026000190190941693909304601f810184900484028201840190925281815295969395939450908301828280156107d05780601f106107a5576101008083540402835291602001916107d0565b820191906000526020600020905b8154815290600101906020018083116107b357829003601f168201915b50505050600583015460068401805460408051602060026001851615610100026000190190941693909304601f810184900484028201840190925281815295969395939450908301828280156108675780601f1061083c57610100808354040283529160200191610867565b820191906000526020600020905b81548152906001019060200180831161084a57829003601f168201915b5050505060078301805460408051602060026001851615610100026000190190941693909304601f81018490048402820184019092528181529495949350908301828280156108f75780601f106108cc576101008083540402835291602001916108f7565b820191906000526020600020905b8154815290600101906020018083116108da57829003601f168201915b5050505050908060080154905089565b60005481565b600160a060020a038a1660009081526001602090815260409091208a51610936928c0190610a35565b50600160a060020a038a1660009081526001602081815260409092209081018a9055885161096c926002909201918a0190610a35565b50600160a060020a038a1660009081526001602090815260409091206003810188905586516109a392600490920191880190610a35565b50600160a060020a038a1660009081526001602090815260409091206005810186905584516109da92600690920191860190610a35565b50600160a060020a038a1660009081526001602090815260409091208351610a0a92600790920191850190610a35565b50600160a060020a039099166000908152600160205260409020600801989098555050505050505050565b828054600181600116156101000203166002900490600052602060002090601f016020900481019282601f10610a7657805160ff1916838001178555610aa3565b82800160010185558215610aa3579182015b82811115610aa3578251825591602001919060010190610a88565b50610aaf929150610ab3565b5090565b610acd91905b80821115610aaf5760008155600101610ab9565b9056fea165627a7a723058203294b0ec03445fe9f0890b9ea5178219fba823116e9981458f0e63f08efd1b180029",
  "source": "pragma solidity ^0.5.0;\n\n\ncontract TodoList{\n\n   uint public currentBlockTimestamp = block.timestamp;\n\n    function getCurrentBlockTimestamp() public {\n        currentBlockTimestamp = block.timestamp;\n    }\n\n    struct publishPacket{\n\n        string buf;\n        uint256 bulen;\n        string dup;\n        uint qos;\n        string retained;\n        uint packetid;\n        string topicName;\n        string payload;\n        uint256 payloadlen;\n    }\n     \n     mapping (address=> publishPacket) public packetinfo;\n\n     function savePacket(address wallet,string memory _buf, uint256  _bulen, string memory _dup, uint _qos,\n        string memory _retained,\n        uint _packetid,\n        string memory _topicName,\n        string memory _payload,\n        uint256 _payloadlen)public{\n            packetinfo[wallet].buf =_buf;\n            packetinfo[wallet].bulen=_bulen;\n            packetinfo[wallet].dup=_dup;\n            packetinfo[wallet].qos=_qos; \n            packetinfo[wallet].retained=_retained;\n            packetinfo[wallet].packetid=_packetid;\n            packetinfo[wallet].topicName=_topicName;\n            packetinfo[wallet].payload=_payload;\n            packetinfo[wallet].payloadlen=_payloadlen;\n           \n        }\n\n    \n} \n\n\n",
  "sourcePath": "/Users/msiddha2@unl.edu/todolist/contracts/TodoList.sol",
  "compiler": {
    "name": "solc",
    "version": "0.5.0+commit.1d4f565a.Emscripten.clang"
  },
  "schemaVersion": "3.0.1",
  "updatedAt": "2023-11-02T08:09:10.472Z",
  "devdoc": {
    "methods": {}
  },
  "userdoc": {
    "methods": {}
  }
}